{
    "contractName": "ERC20Deployer",
    "abi": [
        {
            "anonymous": false,
            "inputs": [
                {
                    "indexed": true,
                    "internalType": "address",
                    "name": "owner",
                    "type": "address"
                },
                {
                    "indexed": true,
                    "internalType": "address",
                    "name": "erc20",
                    "type": "address"
                },
                {
                    "indexed": true,
                    "internalType": "uint8",
                    "name": "tokenType",
                    "type": "uint8"
                }
            ],
            "name": "DeployERC20Event",
            "type": "event"
        },
        {
            "inputs": [
                {
                    "internalType": "bytes",
                    "name": "bytecode",
                    "type": "bytes"
                }
            ],
            "name": "deployERC20",
            "outputs": [],
            "stateMutability": "nonpayable",
            "type": "function"
        },
        {
            "inputs": [
                {
                    "internalType": "bytes",
                    "name": "bytecode",
                    "type": "bytes"
                }
            ],
            "name": "deployERC20Burnable",
            "outputs": [],
            "stateMutability": "nonpayable",
            "type": "function"
        },
        {
            "inputs": [
                {
                    "internalType": "bytes",
                    "name": "bytecode",
                    "type": "bytes"
                }
            ],
            "name": "deployERC20MintBurnable",
            "outputs": [],
            "stateMutability": "nonpayable",
            "type": "function"
        },
        {
            "inputs": [
                {
                    "internalType": "bytes",
                    "name": "bytecode",
                    "type": "bytes"
                }
            ],
            "name": "deployERC20Mintable",
            "outputs": [],
            "stateMutability": "nonpayable",
            "type": "function"
        }
    ],
    "bytecode": "608060405234801561001057600080fd5b5061029f806100206000396000f3fe608060405234801561001057600080fd5b506004361061004c5760003560e01c8063620c9bfc1461005157806384ec1431146100665780638fc5ac0614610079578063a10d2a9a1461008c575b600080fd5b61006461005f366004610198565b61009f565b005b610064610074366004610198565b6100d8565b610064610087366004610198565b610111565b61006461009a366004610198565b610149565b60008151602083016000f06040519091506003906001600160a01b03831690339060008051602061024a83398151915290600090a45050565b60008151602083016000f06040519091506002906001600160a01b03831690339060008051602061024a83398151915290600090a45050565b60008151602083016000f06040519091506000906001600160a01b03831690339060008051602061024a833981519152908490a45050565b60008151602083016000f06040519091506001906001600160a01b03831690339060008051602061024a83398151915290600090a45050565b634e487b7160e01b600052604160045260246000fd5b6000602082840312156101aa57600080fd5b813567ffffffffffffffff808211156101c257600080fd5b818401915084601f8301126101d657600080fd5b8135818111156101e8576101e8610182565b604051601f8201601f19908116603f0116810190838211818310171561021057610210610182565b8160405282815287602084870101111561022957600080fd5b82602086016020830137600092810160200192909252509594505050505056fed64af221f3cccdc4d74f85c1b3fbc9eb22ce82c173386a24839d6d4a60b1ceeaa264697066735822122050ae3eaa39c03326961a59cb58768b02a7754913d4c06e1d822fa691ffe86d4f64736f6c63430008130033",
    "sourcePath": "/Users/kangjuhyup/Documents/nft-contracts/contracts/ERC20Deployer.sol",
    "compiler": {
        "name": "solc",
        "version": "0.8.19+commit.7dd6d404"
    },
    "functionHashes": {
        "deployERC20(bytes)": "8fc5ac06",
        "deployERC20Burnable(bytes)": "84ec1431",
        "deployERC20MintBurnable(bytes)": "620c9bfc",
        "deployERC20Mintable(bytes)": "a10d2a9a"
    },
    "gasEstimates": {
        "creation": {
            "codeDepositCost": "134200",
            "executionCost": "177",
            "totalCost": "134377"
        },
        "external": {
            "deployERC20(bytes)": "infinite",
            "deployERC20Burnable(bytes)": "infinite",
            "deployERC20MintBurnable(bytes)": "infinite",
            "deployERC20Mintable(bytes)": "infinite"
        }
    }
}