{
  "contractName": "ERC20Deployer",
  "abi": [
    {
      "anonymous": false,
      "inputs": [
        {
          "indexed": true,
          "internalType": "address",
          "name": "owner",
          "type": "address"
        },
        {
          "indexed": true,
          "internalType": "address",
          "name": "erc20",
          "type": "address"
        }
      ],
      "name": "DeployERC20Event",
      "type": "event"
    },
    {
      "inputs": [
        {
          "internalType": "bytes",
          "name": "bytecode",
          "type": "bytes"
        },
        {
          "internalType": "string",
          "name": "name",
          "type": "string"
        },
        {
          "internalType": "string",
          "name": "symbol",
          "type": "string"
        },
        {
          "internalType": "address",
          "name": "owner",
          "type": "address"
        },
        {
          "internalType": "uint256",
          "name": "totalSupply",
          "type": "uint256"
        }
      ],
      "name": "getBytesCode",
      "outputs": [
        {
          "internalType": "bytes",
          "name": "",
          "type": "bytes"
        }
      ],
      "stateMutability": "view",
      "type": "function",
      "constant": true
    },
    {
      "inputs": [
        {
          "internalType": "bytes",
          "name": "bytecode",
          "type": "bytes"
        },
        {
          "internalType": "string",
          "name": "name",
          "type": "string"
        },
        {
          "internalType": "string",
          "name": "symbol",
          "type": "string"
        },
        {
          "internalType": "uint256",
          "name": "totalSupply",
          "type": "uint256"
        }
      ],
      "name": "deployERC20",
      "outputs": [],
      "stateMutability": "nonpayable",
      "type": "function"
    }
  ],
  "bytecode": "0x608060405234801561001057600080fd5b50610488806100206000396000f3fe608060405234801561001057600080fd5b50600436106100365760003560e01c806371f03aaf1461003b578063a50751f214610064575b600080fd5b61004e610049366004610238565b610079565b60405161005b9190610337565b60405180910390f35b610077610072366004610351565b6100ce565b005b60606000868686868660405160200161009594939291906103e1565b60408051601f19818403018152908290526100b39291602001610423565b60408051808303601f19018152919052979650505050505050565b60006100dd8585853386610079565b60405133602482015290915060009060440160408051601f19818403018152919052602080820180516001600160e01b031663f2fde38b60e01b179052835191925060009190840182f0905080610138573d6000803e3d6000fd5b6000808351602085016000855af180610155573d6000803e3d6000fd5b506040516001600160a01b0382169033907f7ea1374e1d110362a3ee853e3ff42bda171ee76383ae76368794c2aabd3a7cd590600090a350505050505050565b634e487b7160e01b600052604160045260246000fd5b600082601f8301126101bc57600080fd5b813567ffffffffffffffff808211156101d7576101d7610195565b604051601f8301601f19908116603f011681019082821181831017156101ff576101ff610195565b8160405283815286602085880101111561021857600080fd5b836020870160208301376000602085830101528094505050505092915050565b600080600080600060a0868803121561025057600080fd5b853567ffffffffffffffff8082111561026857600080fd5b61027489838a016101ab565b9650602088013591508082111561028a57600080fd5b61029689838a016101ab565b955060408801359150808211156102ac57600080fd5b506102b9888289016101ab565b93505060608601356001600160a01b03811681146102d657600080fd5b949793965091946080013592915050565b60005b838110156103025781810151838201526020016102ea565b50506000910152565b600081518084526103238160208601602086016102e7565b601f01601f19169290920160200192915050565b60208152600061034a602083018461030b565b9392505050565b6000806000806080858703121561036757600080fd5b843567ffffffffffffffff8082111561037f57600080fd5b61038b888389016101ab565b955060208701359150808211156103a157600080fd5b6103ad888389016101ab565b945060408701359150808211156103c357600080fd5b506103d0878288016101ab565b949793965093946060013593505050565b6080815260006103f4608083018761030b565b8281036020840152610406818761030b565b6001600160a01b0395909516604084015250506060015292915050565b600083516104358184602088016102e7565b8351908301906104498183602088016102e7565b0194935050505056fea2646970667358221220cbceb97ceae9bbe08256219cdca8b35b58a767b5bde353b2aa37ce92ba26e59364736f6c63430008130033",
  "immutableReferences": {},
  "source": "// SPDX-License-Identifier: MIT\npragma solidity ^0.8.9;\n\n\ncontract ERC20Deployer {\n\n  event DeployERC20Event(address indexed owner, address indexed erc20);\n\n  function getBytesCode(bytes memory bytecode, string memory name, string memory symbol,address owner, uint256 totalSupply) public view returns(bytes memory) {\n    bytes memory pack = abi.encodePacked(bytecode,abi.encode(name,symbol,owner,totalSupply));\n    return pack;\n  }\n\n  function deployERC20(bytes memory bytecode, string memory name, string memory symbol, uint256 totalSupply) public {\n    bytes memory pack =  getBytesCode(bytecode, name, symbol,msg.sender,totalSupply);\n    bytes memory data = abi.encodeWithSignature(\"transferOwnership(address)\", msg.sender);\n    address contractB;\n    assembly {\n      contractB := create(0, add(pack, 0x20), mload(pack))\n      if iszero(contractB) {\n          returndatacopy(0, 0, returndatasize())\n          revert(0, returndatasize())\n      }\n\n      let success := call(gas(), contractB, 0, add(data, 0x20), mload(data), 0, 0)\n      if iszero(success) {\n        returndatacopy(0, 0, returndatasize())\n        revert(0, returndatasize())\n      }\n    }\n    emit DeployERC20Event(msg.sender, contractB);\n  }\n}",
  "sourcePath": "/Users/kangjuhyup/Documents/nft-contracts/contracts/ERC20Deployer.sol",
  "compiler": {
    "name": "solc",
    "version": "0.8.19+commit.7dd6d404.Emscripten.clang"
  },
  "schemaVersion": "3.4.13",
  "updatedAt": "2023-06-04T05:47:29.088Z",
  "networkType": "ethereum",
  "devdoc": {
    "kind": "dev",
    "methods": {},
    "version": 1
  },
  "userdoc": {
    "kind": "user",
    "methods": {},
    "version": 1
  }
}